{
  "_format": "hh-sol-artifact-1",
  "contractName": "LPRewardStaking",
  "sourceName": "contracts/Staking.sol",
  "abi": [
    {
      "inputs": [
        {
          "internalType": "address",
          "name": "_stakeToken",
          "type": "address"
        },
        {
          "internalType": "address",
          "name": "_router",
          "type": "address"
        }
      ],
      "stateMutability": "nonpayable",
      "type": "constructor"
    },
    {
      "anonymous": false,
      "inputs": [
        {
          "indexed": true,
          "internalType": "address",
          "name": "user",
          "type": "address"
        },
        {
          "indexed": true,
          "internalType": "uint256",
          "name": "pid",
          "type": "uint256"
        },
        {
          "indexed": false,
          "internalType": "uint256",
          "name": "amount",
          "type": "uint256"
        }
      ],
      "name": "Deposit",
      "type": "event"
    },
    {
      "anonymous": false,
      "inputs": [
        {
          "indexed": true,
          "internalType": "address",
          "name": "user",
          "type": "address"
        },
        {
          "indexed": true,
          "internalType": "uint256",
          "name": "pid",
          "type": "uint256"
        },
        {
          "indexed": false,
          "internalType": "uint256",
          "name": "amount",
          "type": "uint256"
        }
      ],
      "name": "EmergencyWithdraw",
      "type": "event"
    },
    {
      "anonymous": false,
      "inputs": [
        {
          "indexed": true,
          "internalType": "address",
          "name": "caller",
          "type": "address"
        },
        {
          "indexed": false,
          "internalType": "uint256",
          "name": "previousAmount",
          "type": "uint256"
        },
        {
          "indexed": false,
          "internalType": "uint256",
          "name": "newAmount",
          "type": "uint256"
        }
      ],
      "name": "EmissionRateUpdated",
      "type": "event"
    },
    {
      "anonymous": false,
      "inputs": [
        {
          "indexed": true,
          "internalType": "address",
          "name": "previousOwner",
          "type": "address"
        },
        {
          "indexed": true,
          "internalType": "address",
          "name": "newOwner",
          "type": "address"
        }
      ],
      "name": "OwnershipTransferred",
      "type": "event"
    },
    {
      "anonymous": false,
      "inputs": [
        {
          "indexed": false,
          "internalType": "uint256",
          "name": "newStartBlock",
          "type": "uint256"
        }
      ],
      "name": "UpdateStartBlock",
      "type": "event"
    },
    {
      "anonymous": false,
      "inputs": [
        {
          "indexed": true,
          "internalType": "address",
          "name": "user",
          "type": "address"
        },
        {
          "indexed": true,
          "internalType": "uint256",
          "name": "pid",
          "type": "uint256"
        },
        {
          "indexed": false,
          "internalType": "uint256",
          "name": "amount",
          "type": "uint256"
        }
      ],
      "name": "Withdraw",
      "type": "event"
    },
    {
      "inputs": [],
      "name": "_owner",
      "outputs": [
        {
          "internalType": "address",
          "name": "",
          "type": "address"
        }
      ],
      "stateMutability": "view",
      "type": "function"
    },
    {
      "inputs": [
        {
          "internalType": "address",
          "name": "_lpToken",
          "type": "address"
        },
        {
          "internalType": "bool",
          "name": "_withUpdate",
          "type": "bool"
        }
      ],
      "name": "add",
      "outputs": [],
      "stateMutability": "nonpayable",
      "type": "function"
    },
    {
      "inputs": [
        {
          "internalType": "uint256",
          "name": "_pid",
          "type": "uint256"
        },
        {
          "internalType": "address",
          "name": "_user",
          "type": "address"
        }
      ],
      "name": "getUserInfo",
      "outputs": [
        {
          "internalType": "uint256",
          "name": "",
          "type": "uint256"
        },
        {
          "internalType": "uint256",
          "name": "",
          "type": "uint256"
        }
      ],
      "stateMutability": "view",
      "type": "function"
    },
    {
      "inputs": [],
      "name": "massUpdatePools",
      "outputs": [],
      "stateMutability": "nonpayable",
      "type": "function"
    },
    {
      "inputs": [],
      "name": "owner",
      "outputs": [
        {
          "internalType": "address",
          "name": "",
          "type": "address"
        }
      ],
      "stateMutability": "view",
      "type": "function"
    },
    {
      "inputs": [
        {
          "internalType": "uint256",
          "name": "_pid",
          "type": "uint256"
        },
        {
          "internalType": "address",
          "name": "_user",
          "type": "address"
        }
      ],
      "name": "pendingReward",
      "outputs": [
        {
          "internalType": "uint256",
          "name": "",
          "type": "uint256"
        }
      ],
      "stateMutability": "view",
      "type": "function"
    },
    {
      "inputs": [
        {
          "internalType": "uint256",
          "name": "",
          "type": "uint256"
        }
      ],
      "name": "poolInfo",
      "outputs": [
        {
          "internalType": "contract IERC20",
          "name": "lpToken",
          "type": "address"
        },
        {
          "internalType": "uint256",
          "name": "accQswapPerShare",
          "type": "uint256"
        },
        {
          "internalType": "uint256",
          "name": "lastLPbalance",
          "type": "uint256"
        },
        {
          "internalType": "uint256",
          "name": "stakedAmount",
          "type": "uint256"
        }
      ],
      "stateMutability": "view",
      "type": "function"
    },
    {
      "inputs": [],
      "name": "poolLength",
      "outputs": [
        {
          "internalType": "uint256",
          "name": "",
          "type": "uint256"
        }
      ],
      "stateMutability": "view",
      "type": "function"
    },
    {
      "inputs": [],
      "name": "renounceOwnership",
      "outputs": [],
      "stateMutability": "nonpayable",
      "type": "function"
    },
    {
      "inputs": [
        {
          "internalType": "bool",
          "name": "_withUpdate",
          "type": "bool"
        }
      ],
      "name": "set",
      "outputs": [],
      "stateMutability": "nonpayable",
      "type": "function"
    },
    {
      "inputs": [
        {
          "internalType": "uint256[]",
          "name": "_pids",
          "type": "uint256[]"
        },
        {
          "internalType": "uint256",
          "name": "_amount",
          "type": "uint256"
        },
        {
          "internalType": "bool",
          "name": "enableQuai",
          "type": "bool"
        }
      ],
      "name": "stake",
      "outputs": [],
      "stateMutability": "nonpayable",
      "type": "function"
    },
    {
      "inputs": [],
      "name": "stakingToken",
      "outputs": [
        {
          "internalType": "contract IERC20",
          "name": "",
          "type": "address"
        }
      ],
      "stateMutability": "view",
      "type": "function"
    },
    {
      "inputs": [
        {
          "internalType": "address",
          "name": "newOwner",
          "type": "address"
        }
      ],
      "name": "transferOwnership",
      "outputs": [],
      "stateMutability": "nonpayable",
      "type": "function"
    },
    {
      "inputs": [
        {
          "internalType": "uint256",
          "name": "_pid",
          "type": "uint256"
        }
      ],
      "name": "updatePool",
      "outputs": [],
      "stateMutability": "nonpayable",
      "type": "function"
    },
    {
      "inputs": [
        {
          "internalType": "uint256",
          "name": "",
          "type": "uint256"
        },
        {
          "internalType": "address",
          "name": "",
          "type": "address"
        }
      ],
      "name": "userInfo",
      "outputs": [
        {
          "internalType": "uint256",
          "name": "amount",
          "type": "uint256"
        },
        {
          "internalType": "uint256",
          "name": "rewardDebt",
          "type": "uint256"
        }
      ],
      "stateMutability": "view",
      "type": "function"
    },
    {
      "inputs": [
        {
          "internalType": "uint256",
          "name": "_pid",
          "type": "uint256"
        },
        {
          "internalType": "uint256",
          "name": "_amount",
          "type": "uint256"
        },
        {
          "internalType": "bool",
          "name": "enableQuai",
          "type": "bool"
        }
      ],
      "name": "withdraw",
      "outputs": [],
      "stateMutability": "nonpayable",
      "type": "function"
    }
  ],
  "bytecode": "0x608060405260001960025534801561001657600080fd5b50604051611d70380380611d708339818101604052604081101561003957600080fd5b508051602090910151600061004c6101b5565b600080546001600160a01b0319166001600160a01b0383169081178255604051929350917f8be0079c531659141344cd1fd0a4f28419497f9722a3daafe3b4186f6b6457e0908290a350600380546001600160a01b03199081166001600160a01b039485161790915560018054821692841692909217825560408051608081018252727c154ca5933c73cb1bd985ab81bcda5df36dd08152600060208201818152928201818152606083018281526004805497880181559283905292517f8a35acfbc15ff81a39ae7d344fd709f28e8600b4aa8c65c6b64bfe7fe36bd19b9690920295860180549095169190961617909255517f8a35acfbc15ff81a39ae7d344fd709f28e8600b4aa8c65c6b64bfe7fe36bd19c83015591517f8a35acfbc15ff81a39ae7d344fd709f28e8600b4aa8c65c6b64bfe7fe36bd19d82015590517f8a35acfbc15ff81a39ae7d344fd709f28e8600b4aa8c65c6b64bfe7fe36bd19e909101556101b9565b3390565b611ba8806101c86000396000f3fe608060405234801561001057600080fd5b50600436106101005760003560e01c80636e9834661161009757806393f1a40b1161006657806393f1a40b1461032e57806398969e821461035a578063b2bdfa7b14610386578063f2fde38b1461038e57610100565b80636e983466146102cc578063715018a6146102fa57806372f702f3146103025780638da5cb5b1461032657610100565b806345c9d735116100d357806345c9d735146101de57806351eb05a6146102885780635f76f6ab146102a5578063630b5ba1146102c457610100565b8063081e3eda146101055780631069f3b51461011f5780631526fe271461016457806333cfcd3b146101b1575b600080fd5b61010d6103b4565b60408051918252519081900360200190f35b61014b6004803603604081101561013557600080fd5b50803590602001356001600160a01b03166103ba565b6040805192835260208301919091528051918290030190f35b6101816004803603602081101561017a57600080fd5b50356103ea565b604080516001600160a01b0390951685526020850193909352838301919091526060830152519081900360800190f35b6101dc600480360360608110156101c757600080fd5b5080359060208101359060400135151561042b565b005b6101dc600480360360608110156101f457600080fd5b81019060208101813564010000000081111561020f57600080fd5b82018360208201111561022157600080fd5b8035906020019184602083028401116401000000008311171561024357600080fd5b91908080602002602001604051908101604052809392919081815260200183836020028082843760009201919091525092955050823593505050602001351515610547565b6101dc6004803603602081101561029e57600080fd5b50356107c7565b6101dc600480360360208110156102bb57600080fd5b50351515610984565b6101dc6109ed565b6101dc600480360360408110156102e257600080fd5b506001600160a01b0381351690602001351515610a10565b6101dc610b68565b61030a610c0a565b604080516001600160a01b039092168252519081900360200190f35b61030a610c19565b61014b6004803603604081101561034457600080fd5b50803590602001356001600160a01b0316610c28565b61010d6004803603604081101561037057600080fd5b50803590602001356001600160a01b0316610c4c565b61030a610e17565b6101dc600480360360208110156103a457600080fd5b50356001600160a01b0316610e26565b60045490565b60009182526005602090815260408084206001600160a01b03939093168452919052902080546001909101549091565b600481815481106103f757fe5b600091825260209091206004909102018054600182015460028301546003909301546001600160a01b039092169350919084565b60006004848154811061043a57fe5b6000918252602080832087845260058252604080852033865290925292208054600490920290920192508411156104ad576040805162461bcd60e51b81526020600482015260126024820152711dda5d1a191c985dce881b9bdd0819dbdbd960721b604482015290519081900360640190fd5b6104b6856107c7565b60006104c28633610c4c565b905080156104d6576104d633878387610e87565b84156105165781546104e89086610fc8565b8255600354610501906001600160a01b03163387611011565b60038301546105109086610fc8565b60038401555b600183015482546105379164e8d4a510009161053191611068565b906110c1565b8260010181905550505050505050565b6000835111801561055a57506005835111155b6105a4576040805162461bcd60e51b815260206004820152601660248201527524b73b30b634b2103830b4b91039b2b632b1ba34b7b760511b604482015290519081900360640190fd5b81156106c357600354604080516370a0823160e01b815230600482015290516000926001600160a01b0316916370a08231916024808301926020929190829003018186803b1580156105f557600080fd5b505afa158015610609573d6000803e3d6000fd5b505050506040513d602081101561061f57600080fd5b505160035490915061063c906001600160a01b0316333086611103565b600354604080516370a0823160e01b815230600482015290516106bf9284926001600160a01b03909116916370a0823191602480820192602092909190829003018186803b15801561068d57600080fd5b505afa1580156106a1573d6000803e3d6000fd5b505050506040513d60208110156106b757600080fd5b505190610fc8565b9250505b60005b83518110156107c15760008482815181106106dd57fe5b6020908102919091018101516000818152600583526040808220338352909352918220600480549294509092918490811061071457fe5b9060005260206000209060040201905061072d836107c7565b8154156107565760006107408433610c4c565b905080156107545761075433858389610e87565b505b85156107b6576107738751878161076957fe5b845491900461115d565b80835560018201546107909164e8d4a51000916105319190611068565b600183015586516107b09087816107a357fe5b600384015491900461115d565b60038201555b5050506001016106c6565b50505050565b6000600482815481106107d657fe5b600091825260208083206004928302018054604080516370a0823160e01b81523095810195909552519195506001600160a01b0316926370a08231926024808301939192829003018186803b15801561082e57600080fd5b505afa158015610842573d6000803e3d6000fd5b505050506040513d602081101561085857600080fd5b5051600354604080516370a0823160e01b815230600482015290519293506000926001600160a01b03909216916370a0823191602480820192602092909190829003018186803b1580156108ab57600080fd5b505afa1580156108bf573d6000803e3d6000fd5b505050506040513d60208110156108d557600080fd5b505160038401549091508082101561091e5760405162461bcd60e51b8152600401808060200182810382526028815260200180611b0a6028913960400191505060405180910390fd5b60008460020154841161093257600061093a565b846002015484035b905060008111801561094c5750600082115b1561097857610972610967836105318464e8d4a51000611068565b60018701549061115d565b60018601555b50505060029091015550565b61098c6111b7565b6000546001600160a01b039081169116146109dc576040805162461bcd60e51b81526020600482018190526024820152600080516020611b53833981519152604482015290519081900360640190fd5b80156109ea576109ea6109ed565b50565b60045460005b81811015610a0c57610a04816107c7565b6001016109f3565b5050565b610a186111b7565b6000546001600160a01b03908116911614610a68576040805162461bcd60e51b81526020600482018190526024820152600080516020611b53833981519152604482015290519081900360640190fd5b8015610a7657610a766109ed565b50604080516080810182526001600160a01b03928316815260006020820181815292820181815260608301828152600480546001810182559381905293517f8a35acfbc15ff81a39ae7d344fd709f28e8600b4aa8c65c6b64bfe7fe36bd19b9390940292830180546001600160a01b031916949096169390931790945591517f8a35acfbc15ff81a39ae7d344fd709f28e8600b4aa8c65c6b64bfe7fe36bd19c83015591517f8a35acfbc15ff81a39ae7d344fd709f28e8600b4aa8c65c6b64bfe7fe36bd19d82015590517f8a35acfbc15ff81a39ae7d344fd709f28e8600b4aa8c65c6b64bfe7fe36bd19e90910155565b610b706111b7565b6000546001600160a01b03908116911614610bc0576040805162461bcd60e51b81526020600482018190526024820152600080516020611b53833981519152604482015290519081900360640190fd5b600080546040516001600160a01b03909116907f8be0079c531659141344cd1fd0a4f28419497f9722a3daafe3b4186f6b6457e0908390a3600080546001600160a01b0319169055565b6003546001600160a01b031681565b6000546001600160a01b031690565b60056020908152600092835260408084209091529082529020805460019091015482565b60008060048481548110610c5c57fe5b600091825260208083208784526005825260408085206001600160a01b0389811687529084528186206004958602909301600181015460035484516370a0823160e01b81523098810198909852935191985093969395939492909116926370a08231926024808301939192829003018186803b158015610cdb57600080fd5b505afa158015610cef573d6000803e3d6000fd5b505050506040513d6020811015610d0557600080fd5b50518454604080516370a0823160e01b815230600482015290519293506000926001600160a01b03909216916370a0823191602480820192602092909190829003018186803b158015610d5757600080fd5b505afa158015610d6b573d6000803e3d6000fd5b505050506040513d6020811015610d8157600080fd5b505160028601549091506000908211610d9b576000610da3565b856002015482035b9050600081118015610db55750600083115b15610dda57610dd7610dd0846105318464e8d4a51000611068565b859061115d565b93505b610e088560010154610e0264e8d4a51000610531888a6000015461106890919063ffffffff16565b90610fc8565b96505050505050505b92915050565b6000546001600160a01b031681565b610e2e6111b7565b6000546001600160a01b03908116911614610e7e576040805162461bcd60e51b81526020600482018190526024820152600080516020611b53833981519152604482015290519081900360640190fd5b6109ea816111bb565b600060048481548110610e9657fe5b600091825260208083206004928302018054604080516370a0823160e01b81523095810195909552519195506001600160a01b0316926370a08231926024808301939192829003018186803b158015610eee57600080fd5b505afa158015610f02573d6000803e3d6000fd5b505050506040513d6020811015610f1857600080fd5b5051905080841115610f28578093505b8215610f3e57610f3982858861125b565b610fc0565b81546040805163a9059cbb60e01b81526001600160a01b038981166004830152602482018890529151919092169163a9059cbb9160448083019260209291908290030181600087803b158015610f9357600080fd5b505af1158015610fa7573d6000803e3d6000fd5b505050506040513d6020811015610fbd57600080fd5b50505b505050505050565b600061100a83836040518060400160405280601e81526020017f536166654d6174683a207375627472616374696f6e206f766572666c6f77000081525061174f565b9392505050565b604080516001600160a01b038416602482015260448082018490528251808303909101815260649091019091526020810180516001600160e01b031663a9059cbb60e01b1790526110639084906117e6565b505050565b60008261107757506000610e11565b8282028284828161108457fe5b041461100a5760405162461bcd60e51b8152600401808060200182810382526021815260200180611b326021913960400191505060405180910390fd5b600061100a83836040518060400160405280601a81526020017f536166654d6174683a206469766973696f6e206279207a65726f000000000000815250611897565b604080516001600160a01b0380861660248301528416604482015260648082018490528251808303909101815260849091019091526020810180516001600160e01b03166323b872dd60e01b1790526107c19085906117e6565b60008282018381101561100a576040805162461bcd60e51b815260206004820152601b60248201527f536166654d6174683a206164646974696f6e206f766572666c6f770000000000604482015290519081900360640190fd5b3390565b6001600160a01b0381166112005760405162461bcd60e51b8152600401808060200182810382526026815260200180611ae46026913960400191505060405180910390fd5b600080546040516001600160a01b03808516939216917f8be0079c531659141344cd1fd0a4f28419497f9722a3daafe3b4186f6b6457e091a3600080546001600160a01b0319166001600160a01b0392909216919091179055565b825460408051630dfe168160e01b815290516000926001600160a01b031691630dfe1681916004808301926020929190829003018186803b15801561129f57600080fd5b505afa1580156112b3573d6000803e3d6000fd5b505050506040513d60208110156112c957600080fd5b505184546040805163d21220a760e01b815290519293506000926001600160a01b039092169163d21220a791600480820192602092909190829003018186803b15801561131557600080fd5b505afa158015611329573d6000803e3d6000fd5b505050506040513d602081101561133f57600080fd5b5051855460015460408051636eb1769f60e11b81523060048201526001600160a01b0392831660248201529051939450600093919092169163dd62ed3e916044808301926020929190829003018186803b15801561139c57600080fd5b505afa1580156113b0573d6000803e3d6000fd5b505050506040513d60208110156113c657600080fd5b5051600254909150811461145c5785546001546002546040805163095ea7b360e01b81526001600160a01b039384166004820152602481019290925251919092169163095ea7b39160448083019260209291908290030181600087803b15801561142f57600080fd5b505af1158015611443573d6000803e3d6000fd5b505050506040513d602081101561145957600080fd5b50505b600154604080516315ab88c960e31b815290516102584201926001600160a01b038088169391169163ad5c464891600480820192602092909190829003018186803b1580156114aa57600080fd5b505afa1580156114be573d6000803e3d6000fd5b505050506040513d60208110156114d457600080fd5b50516001600160a01b031614806115635750600154604080516315ab88c960e31b815290516001600160a01b0380871693169163ad5c4648916004808301926020929190829003018186803b15801561152c57600080fd5b505afa158015611540573d6000803e3d6000fd5b505050506040513d602081101561155657600080fd5b50516001600160a01b0316145b1561169d57600154604080516315ab88c960e31b815290516001600160a01b03909216916302751cec91839163ad5c464891600480820192602092909190829003018186803b1580156115b557600080fd5b505afa1580156115c9573d6000803e3d6000fd5b505050506040513d60208110156115df57600080fd5b50516001600160a01b038781169116146115f957856115fb565b845b886000808a876040518763ffffffff1660e01b815260040180876001600160a01b03168152602001868152602001858152602001848152602001836001600160a01b0316815260200182815260200196505050505050506040805180830381600087803b15801561166b57600080fd5b505af115801561167f573d6000803e3d6000fd5b505050506040513d604081101561169557600080fd5b506117469050565b60015460408051635d5155ef60e11b81526001600160a01b0387811660048301528681166024830152604482018a90526000606483018190526084830181905289821660a484015260c483018690528351919094169363baa2abde9360e480850194919392918390030190829087803b15801561171957600080fd5b505af115801561172d573d6000803e3d6000fd5b505050506040513d604081101561174357600080fd5b50505b50505050505050565b600081848411156117de5760405162461bcd60e51b81526004018080602001828103825283818151815260200191508051906020019080838360005b838110156117a357818101518382015260200161178b565b50505050905090810190601f1680156117d05780820380516001836020036101000a031916815260200191505b509250505060405180910390fd5b505050900390565b606061183b826040518060400160405280602081526020017f5361666545524332303a206c6f772d6c6576656c2063616c6c206661696c6564815250856001600160a01b03166118fc9092919063ffffffff16565b8051909150156110635780806020019051602081101561185a57600080fd5b50516110635760405162461bcd60e51b815260040180806020018281038252602a815260200180611aba602a913960400191505060405180910390fd5b600081836118e65760405162461bcd60e51b81526020600482018181528351602484015283519092839260449091019190850190808383600083156117a357818101518382015260200161178b565b5060008385816118f257fe5b0495945050505050565b606061190b8484600085611913565b949350505050565b606061191e85611a80565b61196f576040805162461bcd60e51b815260206004820152601d60248201527f416464726573733a2063616c6c20746f206e6f6e2d636f6e7472616374000000604482015290519081900360640190fd5b60006060866001600160a01b031685876040518082805190602001908083835b602083106119ae5780518252601f19909201916020918201910161198f565b6001836020036101000a03801982511681845116808217855250505050505090500191505060006040518083038185875af1925050503d8060008114611a10576040519150601f19603f3d011682016040523d82523d6000602084013e611a15565b606091505b50915091508115611a2957915061190b9050565b805115611a395780518082602001fd5b60405162461bcd60e51b81526020600482018181528651602484015286518793919283926044019190850190808383600083156117a357818101518382015260200161178b565b6000813f7fc5d2460186f7233c927e7db2dcc703c0e500b653ca82273b7bfad8045d85a47081811480159061190b57505015159291505056fe5361666545524332303a204245503230206f7065726174696f6e20646964206e6f7420737563636565644f776e61626c653a206e6577206f776e657220697320746865207a65726f2061646472657373706f6f6c2773207374616b656420746f6b656e20416d6f756e74206973206e6f7420656e6f756768536166654d6174683a206d756c7469706c69636174696f6e206f766572666c6f774f776e61626c653a2063616c6c6572206973206e6f7420746865206f776e6572a26469706673582212208e63bd860fc07ee868e43aaff73404a303f535f29a71c51ca1cd4c93d15fe22764736f6c634300060c0033",
  "linkReferences": {},
  "deployedLinkReferences": {}
}